:100000000C942D010C9455010C9455010C94550140
:100010000C9455010C9455010C9455010C94550108
:100020000C9455010C9455010C941E130C94EC1176
:100030000C9455010C9455010C9455010C945501E8
:100040000C9455010C9455010C9455010C945501D8
:100050000C9455010C9455010C9455010C94D81D29
:100060000C9455010C944A0A0C948D0A0C94550179
:100070000C9455010C9455010C9455010C945501A8
:100080000C9455010C9455010C9455010C94550198
:100090000C9455010C9455010C9455010C94550188
:1000A0000C9455010C9455010C945501080B000259
:1000B0000202010009040000010202000005240000
:1000C0001001052401010104240206052406000193
:1000D0000705810310004009040100020A00000026
:1000E000070502024000000705830240000000C12E
:1000F0008081C1120100020200004041233600004D
:1001000001010200011201000200000040412336FB
:100110000000010102000118034100720064007533
:100120000069006E006F0020004C004C004300226C
:1001300003550053004200200049004F00200042B8
:10014000006F006100720064002000200020002089
:10015000000403090400000000000000002A2B280E
:10016000000000000000000000000000000000008F
:1001700000000000002C9EB4A0A1A2A434A6A7A554
:10018000AE362D3738271E1F20212223242526B3E3
:1001900033B62EB7B89F8485868788898A8B8C8DE5
:1001A0008E8F909192939495969798999A9B9C9DF7
:1001B0002F3130A3AD350405060708090A0B0C0DD5
:1001C0000E0F101112131415161718191A1B1C1DD7
:1001D000AFB1B0B50009040200010300000009211D
:1001E00001010001226500070584034000010501AB
:1001F0000902A1010901A1008501050919012903CD
:10020000150025019503750181029501750581038E
:1002100005010930093109381581257F75089503D5
:100220008106C0C005010906A1018502050719E084
:1002300029E71500250175019508810295017508CA
:1002400081039506750815002565050719002965C0
:100250008100C00097096C0C742011241FBECFEFE1
:10026000DAE0DEBFCDBF11E0A0E0B1E0E0E0F5E410
:1002700002C005900D92AC37B107D9F713E0ACE797
:10028000B1E001C01D92A232B107E1F712E0CAE568
:10029000D2E004C02297FE010E94DC20C435D107C1
:1002A000C9F70E94B01B0C947E220C94000060E8F9
:1002B00075E28CE791E00E94860940E855E260E033
:1002C00070E08EEC91E00E940C0B68E171E08EEC26
:1002D00091E00C94570D68E873E180E090E00E9493
:1002E0005E1E6FE171E08EEC91E00C94570DCF92A1
:1002F000DF92EF92FF920F931F936B017C0120E03E
:1003000030E040E05FE40E94130587FD0EC020E06E
:1003100030E040E05FE4C701B6010E942C030E9478
:1003200029068B019C01305806C0C701B6010E9406
:1003300029068B019C01B801C9011F910F91FF9003
:10034000EF90DF90CF900895A4E0B0E0EAEAF1E00A
:100350000C94A5207C016A01FC018081823008F4A4
:100360004AC1FB019081923008F442C1843079F493
:10037000943009F040C1F7019181FB018181981708
:1003800009F439C1A0E1EA2EA1E0FA2E34C194307B
:1003900009F42EC1923091F4823009F02CC188E02A
:1003A000F701DA0101900D928A95E1F7FB01818155
:1003B000F70191818923FA0181831CC1823009F4FC
:1003C00017C1F70182819381FB01A281B381F701FB
:1003D0000481158126813781FB0184809580A68068
:1003E000B780FC01EA1BFB0BAF01F7FF04C04427F9
:1003F00055274E1B5F0B403251050CF074C01E1682
:100400001F06B4F524013501042E04C076946794C8
:10041000579447940A94D2F749825A826B827C821D
:10042000412C512C3201439404C0440C551C661CD1
:10043000771C4A95D2F741E0441A510861087108C7
:10044000482059206A207B20812C912C54018394D0
:1004500045284628472819F4812C912C54014980BD
:100460005A806B807C8084289528A628B72846C0AF
:10047000EF2B09F443C0840F951F28013901042E86
:1004800004C076946794579447940A94D2F74982AB
:100490005A826B827C82412C512C3201439404C0DD
:1004A000440C551C661C771C4A95D2F741E0441A4F
:1004B000510861087108402251226222732201E032
:1004C00010E020E030E045284628472819F400E0F5
:1004D00010E0980149805A806B807C80042915299E
:1004E000262937290BC0A817B90724F4812C912C91
:1004F000540104C0CD0100E010E09801F7014181F2
:10050000FB015181451709F446C0442349F02401F9
:100510003501401A510A620A730A9301820104C02C
:10052000081919092A093B0937FD05C0F60111828E
:10053000938382830CC041E0F601418393838283DD
:1005400030952095109501951F4F2F4F3F4F0483F5
:100550001583268337830EC0880F991FAA1FBB1FE0
:10056000F60184839583A683B78382819381019763
:1005700093838283F60184819581A681B781AC0142
:10058000BD0141505109610971094F3F5F4F6F4FE4
:100590007F4310F30CC0F601418393838283080DDF
:1005A000191D2A1D3B1D048315832683378383E091
:1005B000F6018083448155816681778177FF1AC077
:1005C000DB01CA0181709927AA27BB277695679519
:1005D00057954795842B952BA62BB72B8483958312
:1005E000A683B7838281938101969383828302C01D
:1005F0007B0101C07601C7012496E0E10C94C12083
:10060000A0E2B0E0E6E0F3E00C94B3206D8F7E8FC3
:100610008F8F98A3298F3A8F4B8F5C8FBE016F5EAF
:100620007F4FCE014D960E94B807BE01675F7F4F96
:10063000CE0149960E94B807AE014F5F5F4FBE01E1
:10064000675F7F4FCE0141960E94A4010E94EE0693
:10065000A096E2E00C94CF20A0E2B0E0E2E3F3E069
:100660000C94B3206D8F7E8F8F8F98A3298F3A8F34
:100670004B8F5C8FBE016F5E7F4FCE014D960E9407
:10068000B807BE01675F7F4FCE0149960E94B80749
:100690008A8591E089278A87AE014F5F5F4FBE014F
:1006A000675F7F4FCE0141960E94A4010E94EE0633
:1006B000A096E2E00C94CF20A0E2B0E0E2E6F3E006
:1006C0000C94A5206D8F7E8F8F8F98A3298F3A8FE2
:1006D0004B8F5C8FBE016F5E7F4FCE014D960E94A7
:1006E000B807BE01675F7F4FCE0149960E94B807E9
:1006F0009989923008F412C08985823008F41AC0B2
:10070000943021F4823009F4B4C008C0843021F45C
:10071000923009F4AEC00EC0923051F481E02A89C3
:100720009A85291301C080E08A8BCE014196A3C02F
:10073000823051F481E02A899A85291301C080E032
:100740008A87CE01099697C08D889E88AF88B88C1D
:100750000D851E852F853889E0E2F0E080E090E08D
:10076000DC01C12CD12C760140E050E0BA0180FEC2
:1007700018C0400F511F621F731F8C0D9D1DAE1DB1
:10078000BF1D412C512C3201439440175107620781
:10079000730718F0412C512C3201840D951DA61DB4
:1007A000B71DCC0CDD1CEE1CFF1C37FF02C068948B
:1007B000C0F8000F111F221F331FB694A7949794FF
:1007C00087943197A1F62B893C89EB85FC852E0F08
:1007D0003F1F2E5F3F4F3C832B8321E0EA893A8500
:1007E000E31301C020E02A83EB81FC810CC080FF71
:1007F00005C076956795579547957068B695A79506
:10080000979587953196B7FDF2CF9F010CC0880F61
:10081000991FAA1FBB1F77FD8160440F551F661FDC
:10082000771F215031090097A105E0E4BE0778F356
:100830002B833C838C019D010F77112722273327BF
:10084000003411052105310559F487FD09C0452BF8
:10085000462B472B29F0805C9F4FAF4FBF4F8078CE
:100860008D839E83AF83B88783E08983CE01019611
:1008700002C080E191E00E94EE06A096E0E10C94B7
:10088000C120A8E1B0E0E7E4F4E00C94AD206D8B6A
:100890007E8B8F8B988F298B3A8B4B8B5C8BBE0119
:1008A000675F7F4FCE0145960E94B807BE016F5F1C
:1008B0007F4FCE0141960E94B8079985923008F487
:1008C00075C08981823008F474C02A853A81232753
:1008D0002A87943011F0923019F4981367C06CC0D5
:1008E000843039F41D861E861F86188A1C861B8656
:1008F00004C0823029F484E08987CE0109965EC065
:100900008B859C852B813C81821B930B9C878B87DD
:100910004D855E856F857889CD80DE80EF80F88497
:100920004C155D056E057F0538F4440F551F661F95
:10093000771F01979C878B87EFE1F0E000E010E0E4
:1009400020E030E480E090E0DC014C155D056E05B0
:100950007F0540F0802B912BA22BB32B4C195D0906
:100960006E097F093695279517950795440F551FF2
:10097000661F771F319749F78C019D010F7711276B
:1009800022273327003411052105310559F487FD4D
:1009900009C0452B462B472B29F0805C9F4FAF4F5A
:1009A000BF4F80788D879E87AF87B88BCE01099621
:1009B00005C0CE01019602C080E191E00E94EE06E2
:1009C0006896E8E00C94C920A8E1B0E0EAEEF4E013
:1009D0000C94B3206D8B7E8B8F8B988F298B3A8BE9
:1009E0004B8B5C8BBE01675F7F4FCE0145960E94AB
:1009F000B807BE016F5F7F4FCE0141960E94B807D6
:100A00008985823058F08981823040F0BE016F5F65
:100A10007F4FCE0109960E94270801C08FEF68968C
:100A2000E2E00C94CF20A8E1B0E0E9E1F5E00C941D
:100A3000B3206D8B7E8B8F8B988F298B3A8B4B8B52
:100A40005C8BBE01675F7F4FCE0145960E94B80761
:100A5000BE016F5F7F4FCE0141960E94B807898526
:100A6000823058F08981823040F0BE016F5F7F4F45
:100A7000CE0109960E94270801C08FEF6896E2E038
:100A80000C94CF20A8E1B0E0E8E4F5E00C94B320AA
:100A90006D8B7E8B8F8B988F298B3A8B4B8B5C8BDE
:100AA000BE01675F7F4FCE0145960E94B807BE0129
:100AB0006F5F7F4FCE0141960E94B80789858230D3
:100AC00058F08981823040F0BE016F5F7F4FCE01C8
:100AD00009960E94270801C081E06896E2E00C9424
:100AE000CF20A8E1B0E0E7E7F5E00C94B3206D8BF0
:100AF0007E8B8F8B988F298B3A8B4B8B5C8BBE01B7
:100B0000675F7F4FCE0145960E94B807BE016F5FB9
:100B10007F4FCE0141960E94B8078985823058F0F8
:100B20008981823040F0BE016F5F7F4FCE01099610
:100B30000E94270801C081E06896E2E00C94CF2073
:100B4000A8E1B0E0E6EAF5E00C94B3206D8B7E8B73
:100B50008F8B988F298B3A8B4B8B5C8BBE01675F99
:100B60007F4FCE0145960E94B807BE016F5F7F4F51
:100B7000CE0141960E94B8078985823040F081E01D
:100B800090E02981223028F080E090E002C081E0EE
:100B900090E06896E2E00C94CF20A8E0B0E0E3EDAE
:100BA000F5E00C94B12023E029838B019C01002700
:100BB00037FD0395112722273327402F0A8361151C
:100BC00071058105910519F482E0898335C02EE114
:100BD00030E03C832B83442371F06115710581055E
:100BE00020E8920771F1002711279801061B170BC7
:100BF000280B390B02C08B019C01C901B8010E946E
:100C0000E0200197181619062CF00D831E832F8300
:100C1000388712C0082E04C0000F111F221F331F77
:100C20000A94D2F70D831E832F8338872EE130E09C
:100C3000281B390B3C832B83CE0101960E94EE06C4
:100C400004C060E070E080E09FEC2896E4E00C9443
:100C5000CD20ACE0B0E0EFE2F6E00C94B120698783
:100C60007A878B879C87BE016F5F7F4FCE01099685
:100C70000E94B8078981823091F1823080F18430FE
:100C800041F48A81882331F100E010E020E030E86F
:100C900029C02B813C8137FD22C02F3131058CF7D3
:100CA0008EE190E0821B930B0D811E812F81388590
:100CB00004C036952795179507958A95D2F78A81AE
:100CC000882381F030952095109501951F4F2F4F67
:100CD0003F4F08C00FEF1FEF2FEF3FE703C000E0CB
:100CE00010E09801B801C9012C96E4E00C94CD20E5
:100CF000A8E0B0E0EEE7F6E00C94AD208B019C019B
:100D00001A82611571058105910519F482E08983C4
:100D10005DC083E089834EE150E05C834B83C90171
:100D2000B8010E94E020019797FF39C0EE27FF2706
:100D3000E81BF90B41E050E060E070E00E2E04C0CB
:100D4000440F551F661F771F0A94D2F7415051096F
:100D5000610971094023512362237323C12CD12CD3
:100D60007601C394452B462B472B19F4C12CD12C6B
:100D7000760104C03695279517950795EA95D2F721
:100D80000C291D292E293F290D831E832F83388787
:100D90002EE130E0281B390B3C832B8317C00097D2
:100DA00029F40D831E832F83388710C0082E04C0BA
:100DB000000F111F221F331F0A94D2F70D831E83C9
:100DC0002F833887481B590B5C834B83CE010196D8
:100DD0000E94EE062896E8E00C94C9200F931F931A
:100DE000CF93DF93DC0114964D915D916D917C91D1
:100DF00017971196EC9111978C91823020F46061D5
:100E00008FEF90E0A6C0843009F49EC0823009F4D0
:100E100095C0411551056105710509F492C01296FE
:100E20002D913C91139722388FEF38070CF058C062
:100E3000C2E8DFEFC21BD30BCA31D1056CF58A01C2
:100E40009B010C2E04C036952795179507950A949B
:100E5000D2F781E090E0A0E0B0E00C2E04C0880F53
:100E6000991FAA1FBB1F0A94D2F70197A109B109C4
:100E700084239523A623B72341E050E060E070E08F
:100E8000892B8A2B8B2B19F440E050E0BA01402BC0
:100E9000512B622B732B03C040E050E0BA01DB0101
:100EA000CA018F779927AA27BB2780349105A1050E
:100EB000B10539F447FF09C0405C5F4F6F4F7F4F6A
:100EC00004C0415C5F4F6F4F7F4F81E090E0411560
:100ED0005105610520E4720748F580E090E026C0E6
:100EE000203831058CF5DB01CA018F779927AA27B5
:100EF000BB2780349105A105B10539F447FF09C02E
:100F0000405C5F4F6F4F7F4F04C0415C5F4F6F4F3E
:100F10007F4F77FD04C0C90181589F4F07C0769568
:100F2000679557954795C90180589F4F97E07695EB
:100F30006795579547959A95D1F70BC080E090E05B
:100F400005C080E090E005C08FEF90E040E050E009
:100F5000BA01982F9695E0FB97F9362F80FB37F969
:100F6000642F752F832FDF91CF911F910F910895DB
:100F7000CF92DF92EF92DC01FB01CC901196DC90D6
:100F8000119712968C9112973FE7E32EE8226E2D6F
:100F9000A60170E0982F991F9927991F13962C91FD
:100FA000822F880F892B90E027FB222720F92183AD
:100FB000009729F5411551056105710511F482E08D
:100FC00027C082E89FEF9383828327E0440F551F59
:100FD000661F771F2A95D1F783E0808309C0440FED
:100FE000551F661F771F82819381019793838283A8
:100FF00041155105610580E4780788F320C08F3FD3
:10100000910579F4411551056105710519F484E0E4
:10101000808319C0E4FE03C081E0808310C0108289
:101020000EC08F5791099383828383E0808387E08A
:10103000440F551F661F771F8A95D1F7706444834C
:10104000558366837783EF90DF90CF900895CF9399
:10105000FC01DB019081923008F452C08C91823007
:1010600008F44EC0943071F4843039F411962C9108
:1010700030E08181281B310948C08181882309F42F
:101080003FC03BC0843029F411968C91811138C047
:1010900034C0923019F48230B9F735C0823069F328
:1010A000C18111968C911197C8131DC02281338183
:1010B00012968D919C911397821793070CF413C08D
:1010C000281739070CF417C0448155816681778150
:1010D00014968D919D910D90BC91A02D841795072C
:1010E000A607B70718F4C11108C00AC04817590766
:1010F0006A077B0740F4C11103C02FEF3FEF05C023
:1011000021E030E002C020E030E0C901CF91089535
:101110002091CA013091CB018091CC019091CD01F9
:10112000281B390B2F733327C90108952091CA0159
:101130003091CB018091CC019091CD0128173907D6
:1011400049F0E091CC01F091CD01E657FE4F2081AE
:1011500030E002C02FEF3FEFC90108952091CA018E
:101160003091CB018091CC019091CD0128173907A6
:10117000B1F0E091CC01F091CD01E657FE4F8081B6
:101180002091CC013091CD012F5F3F4F2F7333273A
:101190003093CD012093CC01282F30E002C02FEFF7
:1011A0003FEFC90108950F931F93CF93DF931F92D1
:1011B000CDB7DEB78C01698380910901882369F07E
:1011C00041E050E0BE016F5F7F4F83E00E94D0108E
:1011D0001816190614F49C0107C081E090E0F8018C
:1011E0009383828320E030E0C9010F90DF91CF919B
:1011F0001F910F91089583E00C941413CF93DF9304
:1012000012C082E00E949E108F3F2FEF9207C9F01C
:10121000E091CA01F091CB01E657FE4F8083D09355
:10122000CB01C093CA01C091CA01D091CB012196D4
:10123000CF73DD278091CC019091CD01C817D907DC
:1012400001F7DF91CF910895FC0120812E5F20836B
:1012500042E450E06CEA70E080E80C946B11FC0111
:1012600081819081913A59F4813209F04BC047E075
:1012700050E062E071E080E00E946B1145C0913265
:1012800009F040C0803239F467E070E082E091E01C
:101290000E94BE1139C0823209F034C0828180932D
:1012A00009018091020190910301A0910401B09184
:1012B0000501803B9440A105B10531F580910901FC
:1012C00080FD12C087E797E790930108809300089C
:1012D0002BE088E190E00FB6F894A8958093600029
:1012E0000FBE2093600010C088E10FB6F894809381
:1012F0006000109260000FBEA89510920108109235
:10130000000802C080E0089581E0089508950895DE
:10131000CF93C09109016AE070E080E090E00E9404
:101320005E1E81E0C11101C080E0CF91089510924E
:101330007F0110927E0188EE93E0A0E0B0E0809300
:10134000800190938101A0938201B09383018CE28C
:1013500091E090937D0180937C010895FC01848548
:101360009585FC01E05CFF4F20813181FC01EE5B43
:10137000FF4F80819181281B390B2F733327C901BF
:101380000895FC0184859585FC01E05CFF4F408158
:101390005181FC01EE5BFF4F2081318142175307E1
:1013A00041F00190F081E02DE80FF91F208130E03D
:1013B00002C02FEF3FEFC9010895FC018485958598
:1013C000FC01E05CFF4F40815181FC01EE5BFF4F6F
:1013D000208131814217530781F0A081B181A80F8C
:1013E000B91F8C91208131812F5F3F4F2F7333279D
:1013F00031832083282F30E002C02FEF3FEFC90157
:101400000895FC0181A1882329F0A489B5898C91D4
:1014100086FFFBCF11A20895CF93DF93FC012685B1
:101420003785D901A05CBF4F8D919C911197019692
:101430008F739927E901CE5BDF4F4881598184176B
:101440009507D9F30D90BC91A02DA20FB31F6C93FB
:10145000A685B785A05CBF4F11969C938E93A689F5
:10146000B7892C9181E090E0078C02C0880F991F0A
:101470000A94E2F7282B2C9381E081A30488F58954
:10148000E02D80818064808381E090E0DF91CF91C6
:10149000089508951F920F920FB60F9211242F9363
:1014A0003F934F938F939F93EF93FF938091C80047
:1014B00082FD1CC04091CE00809174029091750213
:1014C00001968F73992720917602309177028217C7
:1014D000930771F0E0917402F0917502EC5CFD4F9E
:1014E0004083909375028093740202C08091CE0075
:1014F000FF91EF919F918F914F913F912F910F907D
:101500000FBE0F901F9018958EEC91E00E94AE09CF
:10151000892B11F00C94490A08951F920F920FB66F
:101520000F9211242F933F938F939F93EF93FF93E9
:101530002091300230913102809132029091330239
:101540002817390731F48091C9008F7D8093C90035
:1015500014C0E0913202F0913302E051FE4F20813D
:10156000809132029091330201968F739927909364
:101570003302809332022093CE00FF91EF919F912E
:101580008F913F912F910F900FBE0F901F90189544
:101590008F929F92AF92BF92CF92DF92EF92FF9283
:1015A0000F931F93CF93DF93CDB7DEB7FC01138268
:1015B000128288EE93E0A0E0B0E084839583A68356
:1015C000B7838EE391E09183808375876487578723
:1015D0004687318B208B138B028BF58AE48AD78A5E
:1015E000C68AB18EA08E938E828E8F85848F8889D5
:1015F000858F8989868F8A89878F8B8980A3DF91E0
:10160000CF911F910F91FF90EF90DF90CF90BF90FF
:10161000AF909F908F900895CF92DF92EF92FF92BC
:10162000CF93DF93EC016A017B01411581EE5807EE
:1016300061057105F9F0EC89FD8981E090E008A071
:1016400002C0880F991F0A94E2F7808360E079E076
:101650008DE390E0A70196010E948120215031097D
:10166000410951095695479537952795211580E1F0
:10167000380798F0EC89FD89108260E874E88EE103
:1016800090E0A70196010E94812021503109410973
:1016900051095695479537952795E889F9893083FB
:1016A000EA89FB89208319A2EE89FF89408181E0C4
:1016B00090E09C010C8C02C0220F331F0A94E2F7C9
:1016C000422B4083EE89FF8940819C010D8C02C032
:1016D000220F331F0A94E2F7422B4083EE89FF89E1
:1016E00040819C010E8C02C0220F331F0A94E2F746
:1016F000422B4083EE89FF8920810F8C02C0880F26
:10170000991F0A94E2F7809582238083DF91CF911D
:10171000FF90EF90DF90CF900895BF92CF92DF922D
:10172000EF92FF92CF93DF93EC016A017B01B22E1F
:10173000411581EE580761057105F9F0EC89FD89C5
:1017400081E090E008A002C0880F991F0A94E2F798
:10175000808360E079E08DE390E0A70196010E942C
:1017600081202150310941095109569547953795F6
:101770002795211580E1380798F0EC89FD891082C2
:1017800060E874E88EE190E0A70196010E94812054
:1017900021503109410951095695479537952795AB
:1017A000E889F9893083EA89FB892083E88DF98DFE
:1017B000B082EE89FF89408181E090E09C010C8C31
:1017C00002C0220F331F0A94E2F7422B4083EE89B6
:1017D000FF8940819C010D8C02C0220F331F0A94A7
:1017E000E2F7422B4083EE89FF8940819C010E8CF9
:1017F00002C0220F331F0A94E2F7422B4083EE8986
:10180000FF8920810F8C02C0880F991F0A94E2F78C
:10181000809582238083DF91CF91FF90EF90DF90BE
:10182000CF90BF900895CF93DF93FC018685978575
:10183000DC01A05CBF4FEC01CE5BDF4F4D915C91B2
:1018400011972881398142175307C1F7A689B789B3
:101850004C9181E090E09C01048C02C0220F331F68
:101860000A94E2F7209524232C93A689B7894C91FA
:101870009C01058C02C0220F331F0A94E2F72095C9
:1018800024232C93A689B7894C919C01068C02C015
:10189000220F331F0A94E2F7209524232C93A68964
:1018A000B7892C91078C02C0880F991F0A94E2F720
:1018B000809582238C9384859585FC01EE5BFF4F98
:1018C00020813181FC01E05CFF4F31832083DF9177
:1018D000CF91089581E008951092D1011092D00126
:1018E00088EE93E0A0E0B0E08093D2019093D30122
:1018F000A093D401B093D5018EE391E09093CF01F2
:101900008093CE0184E392E09093DB018093DA012F
:1019100080EF91E09093DD018093DC018DEC90E00D
:101920009093DF018093DE018CEC90E09093E101D5
:101930008093E00188EC90E09093E3018093E201D2
:1019400089EC90E09093E5018093E4018AEC90E0CB
:101950009093E7018093E6018EEC90E09093E9018B
:101960008093E80184E08093EA0183E08093EB01B7
:1019700087E08093EC0185E08093ED0181E0809326
:10198000EE010895CF92DF92EF92FF920F931F9393
:10199000CF93DF936C01EB017A01E60EF71E00E0B6
:1019A00010E00BC06991D601ED91FC910190F0819E
:1019B000E02DC6010995080F191FCE15DF0591F717
:1019C000C801DF91CF911F910F91FF90EF90DF90B1
:1019D000CF9008956115710581F0DB010D90002015
:1019E000E9F7AD0141505109461B570BDC01ED9160
:1019F000FC910280F381E02D099480E090E008954D
:101A0000EF92FF920F931F93CF93DF937C01EB0133
:101A100000E010E0FE0121966491662351F0F70189
:101A2000A081B181ED91FC91C7010995080F191FA3
:101A3000F1CFC801DF91CF911F910F91FF90EF90EF
:101A40000895AF92BF92CF92DF92EF92FF920F93E1
:101A50001F93CF93DF937C016B0100E010E0C0E0A7
:101A6000D0E011C0D701ED91FC91A080B180B80108
:101A7000C6010E949118682FC701F5010995C80F8A
:101A8000D91F0F5F1F4FD60114968D919C9115970A
:101A90000817190738F3CE01DF91CF911F910F91ED
:101AA000FF90EF90DF90CF90BF90AF9008950C948F
:101AB000EA0CDC01ED91FC910190F081E02D09949C
:101AC000DB01ED91FC9111970190F081E02DBC01BB
:101AD000CD0109940F931F93CF93DF93EC016DE039
:101AE0000E94590D8C016AE0CE010E94590D9C01A3
:101AF000200F311FC901DF91CF911F910F910895E0
:101B00000F931F93CF93DF93EC010E94000D8C0184
:101B1000CE010E946A0D9C01200F311FC901DF9187
:101B2000CF911F910F9108950F931F93CF93DF9340
:101B3000EC010E94210D8C01CE010E946A0D9C01D6
:101B4000200F311FC901DF91CF911F910F9108958F
:101B50000F931F93CF93DF93EC010E94EA0C8C014B
:101B6000CE010E946A0D9801280F391FC901DF912B
:101B7000CF911F910F9108950F931F93CF93DF93F0
:101B8000EC010E94590D8C01CE010E946A0D9C014E
:101B9000200F311FC901DF91CF911F910F9108953F
:101BA0000F931F93CF93DF93EC010E94600D8C0184
:101BB000CE010E946A0D9C01200F311FC901DF91E7
:101BC000CF911F910F9108954F925F926F927F92E4
:101BD0009F92AF92BF92CF92DF92EF92FF920F93BC
:101BE0001F93CF93DF93CDB7DEB7A1970FB6F894CD
:101BF000DEBF0FBECDBF5C016A017B01922E19A230
:101C000081E0821710F08AE0982E8E010F5D1F4F41
:101C1000492C512C612C712CC701B601A3019201F2
:101C20000E9481208C2D929E80191124015011094F
:101C30008A3014F4805D01C0895CF80180836901F9
:101C40007A01C114D104E104F10431F7B801C501EE
:101C50000E94EA0CA1960FB6F894DEBF0FBECDBF6E
:101C6000DF91CF911F910F91FF90EF90DF90CF9078
:101C7000BF90AF909F907F906F905F904F9008952E
:101C80002115310541F4DC01ED91FC910190F081C9
:101C9000E02D642F09940C94E40D0F931F93CF93C0
:101CA000DF93EC010E94400E8C01CE010E946A0D70
:101CB0009C01200F311FC901DF91CF911F910F911E
:101CC00008959A01AB0160E070E00C94400E0F9310
:101CD0001F93CF93DF93EC019A01AB0160E070E0BA
:101CE0000E94400E8C01CE010E946A0D9801280FBF
:101CF000391FC901DF91CF911F910F9108959A016A
:101D0000462F50E060E070E00C94400E0F931F935C
:101D1000CF93DF93EC019A01462F50E060E070E032
:101D20000E94400E8C01CE010E946A0D9801280F7E
:101D3000391FC901DF91CF911F910F910895CF9263
:101D4000DF92EF92FF920F931F93CF93DF93EC01FB
:101D50006A017B012115310579F4E881F98101904F
:101D6000F081E02D642FDF91CF911F910F91FF90B3
:101D7000EF90DF90CF9009942A30310519F477FD68
:101D80000EC02AE0B701A601CE01DF91CF911F91CD
:101D90000F91FF90EF90DF90CF900C94E40D6DE2E7
:101DA0000E94590D8C0144275527BA014C195D0931
:101DB0006E097F092AE0CE010E94E40D080F191F69
:101DC000C801DF91CF911F910F91FF90EF90DF90AD
:101DD000CF9008950F931F93CF93DF93EC010E9450
:101DE0009F0E8C01CE010E946A0D9C01200F311FB5
:101DF000C901DF91CF911F910F9108959A01AB0115
:101E0000662757FD6095762F0C949F0E0F931F93B6
:101E1000CF93DF93EC019A01AB01662757FD6095E4
:101E2000762F0E949F0E8C01CE010E946A0D9801B0
:101E3000280F391FC901DF91CF911F910F9108958C
:101E40007F928F929F92AF92BF92CF92DF92EF924A
:101E5000FF920F931F93CF93DF93EC016A017B01F5
:101E6000122F9A01AB01C701B6010E94A005882379
:101E700019F06AE571E032C046015701E894B7F8FD
:101E80002FEF3FEF4FE75FE7C501B4010E94A005C8
:101E900081110DC02FEF3FEF4FE75FE7C501B401A0
:101EA0000E94710518161CF46EE571E017C02FEF43
:101EB0003FEF4FE75FE4C701B6010E94E404181644
:101EC0000CF40AC02FEF3FEF4FE75FECC701B601FC
:101ED0000E94420587FF12C062E671E0CE01DF91E9
:101EE000CF911F910F91FF90EF90DF90CF90BF9017
:101EF000AF909F908F907F900C94EA0C20E030E0A0
:101F0000A901C701B6010E94420587FF0AC06DE220
:101F1000CE010E94590D5C01F7FAF094F7F8F094A5
:101F200002C0A12CB12C00E060E070E080E09FE3F3
:101F300007C020E030E040E251E40E9441040F5F1E
:101F40000113F7CF262F372F482F592FC701B6017E
:101F50000E940003762E872E982EC92E0E947701AC
:101F6000D62EE72EF82E092F0E9478069B01AC0191
:101F7000672D782D892D9C2D0E942C03C62E972E1F
:101F8000882E792E2AE04D2D5E2D6F2D702FCE01DB
:101F90000E94E40D7C01EA0CFB1C1123B9F166E2FE
:101FA00071E0CE010E94EA0CE80EF91E2FC020E07D
:101FB00030E040E251E46C2D792D882D972D0E9460
:101FC0005C03762E072F6C019D2D0E9429064B0184
:101FD000AA2497FCA094BA2C2AE030E0B501A40111
:101FE000CE010E949F0EE80EF91EC501B4010E94A9
:101FF000CD059B01AC01672D702F8C2D9D2D0E946E
:102000002C03C62E972E882E792E11501111CFCF6A
:10201000C701DF91CF911F910F91FF90EF90DF905B
:10202000CF90BF90AF909F908F907F9008950C9429
:10203000200F0F931F93CF93DF93EC010E94200F8B
:102040008C01CE010E946A0D9801280F391FC90129
:10205000DF91CF911F910F91089505C02091F1005C
:10206000FC012193CF016150C8F7289884E6809342
:10207000070308958091060308952FB7FC0120837C
:10208000F89467706093E9000895CF93DF931F92EF
:10209000CDB7DEB7682FCE0101960E943D1080912A
:1020A000F20099819FBF0F90DF91CF910895FF9229
:1020B0000F931F93CF93DF9300D0CDB7DEB7F62EEB
:1020C0008A01909106039923A9F057FF16C012C008
:1020D0002898809307039091F1009193FE12F8CF16
:1020E0004115510521F08091F2008823D1F08981BA
:1020F0008FBF1BC04FEF5FEF18C0682FCE01019656
:102100007A830E943D108091F20090E0A8017A81CC
:10211000801791070CF4AC01EF2DF72FF40E84E635
:10212000DDCF8BE68093E800E2CFCA010F900F90DD
:10213000DF91CF911F910F91FF900895CF93DF937F
:102140001F92CDB7DEB741E050E0BE016F5F7F4F19
:102150000E945710019719F4298130E002C02FEF37
:102160003FEFC9010F90DF91CF910895CF93DF9397
:102170001F92CDB7DEB7682FCE0101960E943D10A9
:102180008091E80085FF05C09091F20080E4891BF2
:1021900001C080E099819FBF0F90DF91CF9108959A
:1021A0006F927F928F929F92AF92BF92CF92DF9267
:1021B000EF92FF920F931F93CF93DF931F92CDB7B0
:1021C000DEB7782EC42EB52E8091060381114CC047
:1021D0002FEF3FEF64C0872D0E94B610682E81114B
:1021E00009C0DA94A9F361E070E080E090E00E9419
:1021F0005E1E47C0282F30E0021713070CF4602E34
:1022000006191109672DCE0101960E943D109920F3
:1022100041F002C01092F1006A948FEF6812FACF79
:1022200017C0862D77FC02C0F7010EC0970106C0CB
:10223000F9012F5F3F4FE491E093F1008150C0F727
:1022400005C091919093F1008150D8F7E60CF11CF4
:102250008091E80085FF20C00115110511F481105F
:102260001BC089818FBF0DC07B01042F152F8AEF02
:10227000D82E90E2992E97202AE3A22E30E4832EC6
:1022800087200115110509F0A6CF5D9884E680939B
:1022900008032C2D3B2D03C0A092E800E2CFC9011A
:1022A0000F90DF91CF911F910F91FF90EF90DF90F2
:1022B000CF90BF90AF909F908F907F906F90089538
:1022C0001092E90010920503109204039093030307
:1022D000809302030895FF920F931F93CF93DF9390
:1022E000C42FD52FDB0160E070E0EEEFFE2E38C08A
:1022F0009D012F5F3F4F87FF04C0FD01D901E4918D
:1023000002C0EC91D90100910403109105032091C2
:1023100002033091030302171307B4F49091E8000D
:102320009570E1F39091E80092FD1FC0E093F100F9
:1023300020910403309105032F5F3F4F2F73332704
:10234000232B11F4F092E80020910403309105034F
:102350002F5F3F4F30930503209304036F5F7F4F40
:102360006C177D0729F69A0102C02FEF3FEFC901D4
:10237000DF91CF911F910F91FF9008951F93CF93FD
:10238000DF931F92CDB7DEB7162F2091E80022FF12
:10239000FCCF612F79830E942D108BEF8093E80092
:1023A000812F7981972F0F90DF91CF911F91089501
:1023B000CF93DF931F92CDB7DEB71982CE0101967E
:1023C0000E942409CE0101960E94031F898190E09A
:1023D0000F90DF91CF9108951F920F920FB60F9239
:1023E0001124EF92FF920F931F932F933F934F93DC
:1023F0005F936F937F938F939F93AF93BF93EF936D
:10240000FF93CF93DF93CDB7DEB76297DEBFCDBF2B
:102410001092E9008091E80083FFE9C068E0CE01F6
:102420000A960E942D1082EF8093E8009A8597FF0C
:1024300005C08091E80080FFFCCF03C08EEF809341
:10244000E800892F807609F0B7C08B85811105C01F
:102450001092F1001092F100C3C0813009F4C0C0A5
:10246000833009F4BDC0853049F48091E80080FFD5
:10247000FCCF8C8580688093E300B2C0863009F081
:1024800073C02D85E888F988223071F580E090E0EE
:102490002A8B0E9460110E94D81199E08E010F5F73
:1024A0001F4FF801392F11923A95E9F799832A893C
:1024B0002A8391E09E8390E898879AEF99872091EC
:1024C000040330910503275F3F4F3C832B838D83AB
:1024D000C7010E94601149E050E0B80180E00E940D
:1024E0006B110E94D8117CC0C7012A8B0E94601119
:1024F0002A89223241F482E290E00E940E1F892B49
:1025000009F06EC071C0213071F4888999890897EB
:1025100019F481E08093010380910103882389F0FD
:1025200063EF70E016C0233009F05EC08C8588230D
:1025300059F0823061F0813009F056C067E171E0F6
:1025400008C065E071E005C061E571E002C06FE2BE
:1025500071E06115710509F447C0FB01449150E039
:1025600080E80E946B113CC0873009F43DC0883080
:1025700021F481E08093F10033C0893089F59370B4
:1025800099F5EFEEF0E081E021E096E38093E90039
:102590002093EB0034913093EC009093ED008F5F2B
:1025A0003196853099F78EE78093EA001092EA0021
:1025B0008C858093060314C0888999890E946011D4
:1025C0008E85811105C0CE010A960E942F0906C092
:1025D000823051F4CE010A960E94361F882321F0E2
:1025E0008EEF8093E80003C081E28093EB00629657
:1025F0000FB6F894DEBF0FBECDBFDF91CF91FF9134
:10260000EF91BF91AF919F918F917F916F915F916A
:102610004F913F912F911F910F91FF90EF900F904D
:102620000FBE0F901F9018958093E9008091F200E3
:10263000882319F08AE38093E80008951F920F928F
:102640000FB60F9211242F933F934F935F936F9385
:102650007F938F939F93AF93BF93EF93FF9380915B
:10266000E1001092E10083FF0FC01092E90091E0B9
:102670009093EB001092EC0092E39093ED00109297
:10268000060398E09093F00082FF26C083E00E944A
:10269000141382E00E944510882321F08CE791E01A
:1026A0000E94FE0880910803882339F08091080376
:1026B000815080930803882361F080910703882369
:1026C00059F080910703815080930703882319F004
:1026D00003C05D9AF2CF289AFF91EF91BF91AF911D
:1026E0009F918F917F916F915F914F913F912F912A
:1026F0000F900FBE0F901F901895CF93C091E400DC
:1027000063E070E080E090E00E945E1E9091E40043
:1027100081E0C91301C080E0CF910895089510921F
:10272000060381E08093D70080EA8093D80082E19D
:1027300089BD09B400FEFDCF61E070E080E090E06B
:102740000E945E1E80E98093D8008CE08093E200B6
:102750001092E000559A209A0895089590910603EA
:1027600081E0911101C080E008950895FC0180810D
:1027700091810C94471CCF93DF93EC018881998160
:10278000009711F00E94471C198218821D821C823A
:102790001B821A82DF91CF9108950F931F93CF93DD
:1027A000DF93EC018B016F5F7F4F888199810E94DD
:1027B000E61C009731F0998388831B830A8381E0AC
:1027C00001C080E0DF91CF911F910F910895CF93C9
:1027D000DF93EC0188819981892B31F08A819B817B
:1027E0008617970708F00CC0CE010E94CD138823EE
:1027F00049F08C819D81892B19F4E881F98110823F
:1028000081E001C080E0DF91CF910895EF92FF92C7
:102810000F931F93CF93DF93EC017B018A01BA01E1
:102820000E94E713811104C0CE010E94BB1307C0B0
:102830001D830C83B701888199810E946921CE0193
:10284000DF91CF911F910F91FF90EF900895DC01E0
:1028500011961C921E9213961C921E921297159618
:102860001C921E92149716961C926115710559F0D0
:10287000DB010D900020E9F7AD0141505109461BE5
:10288000570B0C9406140895CF93DF93EC01FB01D2
:102890008617970761F0608171816115710529F0D4
:1028A000448155810E94061402C00E94BB13CE01D0
:1028B000DF91CF910895FC01118210821382128260
:1028C0001582148216820C944414CF93DF93D82F70
:1028D000C92F6115710561F0DB010D900020E9F74A
:1028E000AD0141505109461B570B0E94061402C00E
:1028F0000E94BB138D2F9C2FDF91CF9108950F93D2
:102900001F93CF93DF93CDB7DEB7A1970FB6F8949F
:10291000DEBF0FBECDBF8C01CB01BA01F801118221
:1029200010821382128215821482168230E0AE0168
:102930004F5F5F4F0E941C22BE016F5F7F4FC80137
:102940000E946514A1960FB6F894DEBF0FBECDBFEE
:10295000DF91CF911F910F9108950F931F93CF9304
:10296000DF93CDB7DEB7A2970FB6F894DEBF0FBEE8
:10297000CDBF8C01CB01BA01F80111821082138204
:10298000128215821482168230E0AE014F5F5F4FD3
:102990000E94D321BE016F5F7F4FC8010E94651462
:1029A000A2960FB6F894DEBF0FBECDBFDF91CF91D8
:1029B0001F910F9108950F931F93CF93DF93CDB77E
:1029C000DEB761970FB6F894DEBF0FBECDBF8C01A6
:1029D000CB01F801118210821382128215821482B7
:1029E000168250E0BE016F5F7F4F0E944122BE0100
:1029F0006F5F7F4FC8010E94651461960FB6F8940F
:102A0000DEBF0FBECDBFDF91CF911F910F91089513
:102A10000F931F93CF93DF93CDB7DEB762970FB6B7
:102A2000F894DEBF0FBECDBF8C01CB01F80111823F
:102A300010821382128215821482168250E0BE0127
:102A40006F5F7F4F0E94B221BE016F5F7F4FC80151
:102A50000E94651462960FB6F894DEBF0FBECDBF1C
:102A6000DF91CF911F910F9108950F931F93CF93F3
:102A7000DF93CDB7DEB729970FB6F894DEBF0FBE50
:102A8000CDBF8C01862FF801118210821382128231
:102A900015821482168250E0BE016F5F7F4F90E076
:102AA0000E944122BE016F5F7F4FC8010E946514E2
:102AB00029960FB6F894DEBF0FBECDBFDF91CF9140
:102AC0001F910F910895CF93DF9300D0CDB7DEB75C
:102AD000FC011182108213821282158214821682E6
:102AE00069831A82BE016F5F7F4F0E9465140F9049
:102AF0000F90DF91CF910895EF92FF920F931F9364
:102B0000CF93DF93EC017B010C811D816115710571
:102B100011F480E016C04115510591F0040F151F06
:102B2000B8010E94E7138823A1F3288139818C81A1
:102B30009D81B701820F931F0E9469211D830C8321
:102B400081E0DF91CF911F910F91FF90EF90089559
:102B5000FB0144815581608171810C947C15611564
:102B6000710559F0DB010D900020E9F7AD014150EE
:102B70005109461B570B0C947C1580E00895CF93A8
:102B8000DF9300D0CDB7DEB769831A8241E050E011
:102B9000BE016F5F7F4F0E947C150F900F90DF91F9
:102BA000CF910895EF92FF920F931F93CF93DF93EE
:102BB00000D000D0CDB7DEB77C01862F4AE050E0D0
:102BC0008E010F5F1F4FB80190E00E94B221F80103
:102BD00001900020E9F7AF0141505109401B510B12
:102BE000B801C7010E947C150F900F900F900F90B5
:102BF000DF91CF911F910F91FF90EF900895EF9289
:102C0000FF920F931F93CF93DF93CDB7DEB7279734
:102C10000FB6F894DEBF0FBECDBF7C01CB014AE0FA
:102C200050E08E010F5F1F4FB8010E94B221F801E2
:102C300001900020E9F7AF0141505109401B510BB1
:102C4000B801C7010E947C1527960FB6F894DEBF25
:102C50000FBECDBFDF91CF911F910F91FF90EF90ED
:102C60000895EF92FF920F931F93CF93DF9300D0BD
:102C700000D000D0CDB7DEB77C01CB014AE050E0F8
:102C80008E010F5F1F4FB8010E944122F801019091
:102C90000020E9F7AF0141505109401B510BB80129
:102CA000C7010E947C1526960FB6F894DEBF0FBEB2
:102CB000CDBFDF91CF911F910F91FF90EF900895BD
:102CC000EF92FF920F931F93CF93DF93CDB7DEB7B1
:102CD0002C970FB6F894DEBF0FBECDBF7C01CB01A1
:102CE000BA012AE030E08E010F5F1F4FA8010E9459
:102CF000D321F80101900020E9F7AF0141505109BB
:102D0000401B510BB801C7010E947C152C960FB6D1
:102D1000F894DEBF0FBECDBFDF91CF911F910F9111
:102D2000FF90EF900895EF92FF920F931F93CF9330
:102D3000DF93CDB7DEB72B970FB6F894DEBF0FBE8B
:102D4000CDBF7C01CB01BA012AE030E08E010F5FDC
:102D50001F4FA8010E941C22F80101900020E9F7F2
:102D6000AF0141505109401B510BB801C7010E94EE
:102D70007C152B960FB6F894DEBF0FBECDBFDF914A
:102D8000CF911F910F91FF90EF900895CF93DF9314
:102D9000D82FC92FFB0144815581608171810E9428
:102DA0007C15811104C08D2F9C2F0E94BB138D2F89
:102DB0009C2FDF91CF910895CF93DF93D82FC92F08
:102DC0006115710569F0DB010D900020E9F7AD0197
:102DD00041505109461B570B0E947C15811104C0BC
:102DE0008D2F9C2F0E94BB138D2F9C2FDF91CF9195
:102DF0000895CF93DF93D82FC92F0E94BF1581115B
:102E000004C08D2F9C2F0E94BB138D2F9C2FDF9110
:102E1000CF910895CF93DF93D82FC92F0E94D21559
:102E2000811104C08D2F9C2F0E94BB138D2F9C2FCE
:102E3000DF91CF910895CF93DF93D82FC92F0E94B0
:102E4000FF15811104C08D2F9C2F0E94BB138D2F65
:102E50009C2FDF91CF910895CF93DF93D82FC92F67
:102E60000E943116811104C08D2F9C2F0E94BB132C
:102E70008D2F9C2FDF91CF910895CF93DF93D82F83
:102E8000C92F0E946016811104C08D2F9C2F0E94B3
:102E9000BB138D2F9C2FDF91CF910895CF93DF939C
:102EA000D82FC92F0E949316811104C08D2F9C2FFB
:102EB0000E94BB138D2F9C2FDF91CF910895CF934C
:102EC000DF93DC01ED91FC91EB01A881B981309792
:102ED00011F01097C9F4109759F0EB012C813D8146
:102EE000232B31F02C9130E031952195310914C01C
:102EF000309781F0DC0114968D919C911597892B68
:102F000049F0208130E008C0BD01CF01DF91CF91B1
:102F10000C94602120E030E0C901DF91CF91089549
:102F2000FC0144815581FB012481358142175307FF
:102F300029F40E945F1721E0892B09F020E0822FFD
:102F40000895DC0114962D913C911597232B39F4AB
:102F500081E06115710511F0FB0108C00895DC01E5
:102F6000ED91FC916115710529F481E0908199231F
:102F700049F007C0CF010E9460219C0181E0232B12
:102F800009F080E008950E945F17892F881F882725
:102F9000881F08950E945F1721E0181619060CF08B
:102FA00020E0822F08950E945F1721E0181619066D
:102FB0000CF420E0822F08950E945F17892F8095DE
:102FC000881F8827881F0895EF92FF920F931F9301
:102FD000CF93DF938617970729F1FC012481358170
:102FE000FB014481558124173507F1F4232BD1F0DF
:102FF000C081D181FC01008111810FC0992787FD1B
:1030000090950E942A217C018991992787FD9095AE
:103010000E942A21E816F90639F4F80181918F01FE
:103020008111ECCF81E001C080E0DF91CF911F9151
:103030000F91FF90EF900895FA01DB0114964D91E6
:103040005C911597DC0114962D913C911597241BEA
:10305000350B2E173F0790F08D919C91009771F0E2
:10306000DB016D917C916115710541F08E0F9F1F01
:103070000E9470219C0181E0232B09F080E00895DB
:10308000FC0144815581FB0124813581421753079E
:1030900020F040E050E00C941C1880E00895FC0102
:1030A00084819581DB0114964D915C91159784176D
:1030B0009507A0F0208131812115310579F06D91BE
:1030C0007C916115710551F0841B950B820F931F44
:1030D0000E9460219C0181E0232B09F080E008958B
:1030E000DC0114962D913C9115976217730728F413
:1030F000ED91FC91E60FF71F40830895FC012481B8
:1031000035816217730720F480819181009729F43B
:103110001092090369E073E002C0680F791FCB01C8
:103120000895FC01248135816217730748F480817A
:103130009181009729F0FC01E60FF71F8081089527
:1031400080E008950C9491180F931F93CF93DF9311
:10315000EB0141155105E9F02097D9F0FC010481FC
:1031600015812017310708F013C041505109021B87
:10317000130B4017510708F48A01FC01608171812B
:10318000620F731FA801CE010E947E21C00FD11FC4
:103190001882DF91CF911F910F910895CF93DF9304
:1031A000FC01848195814817590780F4C081D18141
:1031B000772767FD7095CE01840F951F0E945521DA
:1031C000009721F09C012C1B3D0B02C02FEF3FEF1D
:1031D000C901DF91CF91089540E050E00C94CE18E2
:1031E000CF93DF93FC01848195814817590780F4C0
:1031F000C081D181FB0160817181CE01840F951F57
:103200000E949821009721F09C012C1B3D0B02C0CD
:103210002FEF3FEFC901DF91CF91089540E050E0DB
:103220000C94F018DF92EF92FF920F931F93CF93BD
:10323000DF93EC018C819D814817590718F02FEF1F
:103240003FEF1DC08A010F5F1F4FE881F981E00F3A
:10325000F11FD0801082E880F980772767FD709594
:10326000C7010E948D21F701E00FF11FD082009766
:1032700031F328813981AC01421B530B9A01C901FA
:10328000DF91CF911F910F91FF90EF90DF90089504
:10329000FC0144815581415051090C941219AF929F
:1032A000BF92CF92DF92EF92FF920F931F93CF9333
:1032B000DF936B018A01FB01448155814115510562
:1032C00069F1FC01248135812115310539F124177B
:1032D000350720F10217130718F089010150110971
:1032E000FC01E080F180C701CFEFDFEF5701A00EB6
:1032F000B11E10C0F601608171810E949821009773
:1033000079F09C012E193F090217130708F49E015A
:103310000196E901A816B90668F702C0CFEFDFEF02
:10332000CE01DF91CF911F910F91FF90EF90DF9031
:10333000CF90BF90AF900895FC0144815581FB016F
:1033400024813581421B530B0C944F19BF92CF92AD
:10335000DF92EF92FF920F931F93CF93DF936C0155
:103360007B01EA0189012417350720F48D2FE9013B
:10337000042F182F6EE171E0C6010E942714D701B7
:1033800014968D919C9115978C179D07C8F0801706
:10339000910708F48C01D701ED91FC911197E00F92
:1033A000F11FB08010826D917C916C0F7D1FC60162
:1033B0000E946514D701ED91FC91E00FF11FB082DE
:1033C000C601DF91CF911F910F91FF90EF90DF9099
:1033D000CF90BF900895CF93DF93EC01FB01248140
:1033E00035810E94A619CE01DF91CF910895DC01AD
:1033F000ED91FC91309729F40895861301C0408324
:10340000319680818111F9CF08952F923F924F928A
:103410005F926F927F928F929F92AF92BF92CF9264
:10342000DF92EF92FF920F931F93CF93DF938C0164
:103430005B017A01DC0114964D905C901597411464
:10344000510409F4E1C0FB016480758061147104CA
:1034500009F4DAC0DA011496CD90DC901597C618FD
:10346000D708FC01C081D181C114D104E1F411C09D
:10347000D7016C9111967C91119714964D915C91A6
:103480001597C8010E943A21F701C481D581C00F68
:10349000D11FD5016D917C91CE010E9498218C01A4
:1034A000009731F7B1C0D7FE02C04E012EC0FB011C
:1034B0002080318042014DC032016C1A7D0AA30187
:1034C000BE01C4010E943A21680C791CD7016C919D
:1034D00011967C91119714964D915C911597C301AB
:1034E0000E943A21F70184809580860C971CD501B3
:1034F0001496CD91DC911597C40DD51DF8018481EA
:1035000095818C0D9D1D95838483D5016D917C9152
:10351000CE010E9498212C01009771F6BE01C401D2
:10352000DF91CF911F910F91FF90EF90DF90CF909F
:10353000BF90AF909F908F907F906F905F904F90D3
:103540003F902F900C946921EC01C60DD71D8C0C77
:103550009D1CB101CE010E9498210097A9F7841407
:10356000950409F451C0F801828193818815990569
:1035700098F4B401C8010E94CD13882309F444C013
:103580000BC097FD41C0AC01B501C8010E944F19A5
:10359000EC0197FF07C038C0D80114968D919C911B
:1035A000159730C0F80180819181D50114962D9135
:1035B0003C9115972C0F3D1F820F931F448155811D
:1035C000421B530BBC018C0D9D1D0E944321F80131
:1035D000848195818C0D9D1D958384830190F0815C
:1035E000E02DE80FF91F1082D8012D913C912C0F8E
:1035F0003D1FF7016081718144815581C9010E949D
:103600003A21CE010197BDCFDF91CF911F910F914C
:10361000FF90EF90DF90CF90BF90AF909F908F90F2
:103620007F906F905F904F903F902F900895CF9331
:10363000DF93FC01C081D181209739F409C099271B
:1036400087FD90950E942A21899388818111F7CF67
:10365000DF91CF910895CF93DF93FC01C081D18199
:10366000209739F409C0992787FD90950E9432214F
:10367000899388818111F7CFDF91CF910895AF921F
:10368000BF92CF92DF92EF92FF920F931F93CF934F
:10369000DF936C01DC01ED90FC901197E114F104D3
:1036A00009F447C014960D911C9115970115110549
:1036B00009F43FC05701E501BFEFAB1ABB0A88818F
:1036C000992787FD90950E942221892BA1F701500F
:1036D00011090E0D1F1DF8018081992787FD909516
:1036E0000E942221892B69F40F5F1F4F0C1B1D0BB9
:1036F000D60115961C930E931497EC16FD0650F404
:1037000004C00C171D0790F4EFCFA801BE01C7013C
:103710000E943A21D601ED91FC91119714968D915A
:103720009C911597E80FF91F108203C001501109F1
:10373000D2CFDF91CF911F910F91FF90EF90DF904B
:10374000CF90BF90AF900895FC0180819181009748
:1037500011F00C94FB2060E070E080E090E00895B0
:103760000E948E1E80E093E00E948F130E945701FA
:10377000C4E8DAE00E946B012097E1F30E94840A1A
:10378000F9CF0F931F93CF93DF938230910510F4FD
:1037900082E090E0E0912003F091210320E030E00E
:1037A000C0E0D0E023C04081518148175907A8F0FC
:1037B0004817590761F482819381209719F09B8300
:1037C0008A832EC0909321038093200329C0211562
:1037D000310529F04217530710F0A90102C0BE01BC
:1037E000DF0102811381EF019A01F8013097D9F6C8
:1037F0002115310509F1281B390B2430310590F4CE
:1038000012968D919C9113976115710521F0FB0122
:103810009383828304C09093210380932003FD014E
:1038200032962FC0FD01E20FF31F81939193225036
:1038300031092D933C9325C04DB75EB748575109C8
:10384000E0910C01F0910D01E417F507C0F44E1B57
:103850005F0B4817590798F09C012E5F3F4F4217A6
:10386000530768F02E0F3F1F30930D0120930C017A
:1038700030930B0120930A018193919302C0E0E001
:10388000F0E0CF01DF91CF911F910F910895EF925A
:10389000FF920F931F93CF93DF93009709F48FC08C
:1038A000DC01129713961C921E921297E09020034F
:1038B000F0902103E114F10489F42D913C911197CA
:1038C000280F391F80910C0190910D0182179307E9
:1038D00089F5B0930D01A0930C0171C0E70120E0C0
:1038E00030E001C0EA01CA17DB0738F44A815B8186
:1038F0009E0141155105B1F722C0BC01625071090A
:10390000FB01D383C28300811181AC01400F511FA1
:103910004C175D0761F448815981400F511F4E5F7C
:103920005F4F518340834A815B81538342832115DA
:10393000310529F4B0932103A093200340C0F9017D
:10394000B383A283E90169917991C60FD71FAC17A0
:10395000BD0779F4DC015E914E91460F571F4E5F13
:103960005F4F5183408312968D919C91139793835F
:103970008283A0E0B0E002C0D7017C01F701828120
:1039800093810097C9F7C701029620813181820F88
:10399000931F20910C0130910D012817390779F4FC
:1039A000109729F4109221031092200304C013965B
:1039B0001C921E921297F0920D01E0920C01DF9181
:1039C000CF911F910F91FF90EF9008958F929F924A
:1039D000AF92BF92CF92DF92EF92FF920F931F931D
:1039E000CF93DF93EC01009779F4CB01DF91CF9176
:1039F0001F910F91FF90EF90DF90CF90BF90AF900D
:103A00009F908F900C94C11BDC01A60FB71FFC0187
:103A10003297AE17BF0718F4C0E0D0E0A7C000810E
:103A2000118106171707B0F00530110508F49EC084
:103A3000C80104978617970708F498C00250110927
:103A4000061B170B0D931D9371836083CD010E949C
:103A5000471C8CC07B01E01AF10A5C01A00EB11E6C
:103A6000E0912003F0912103812C912C80E090E0E3
:103A70004CC0EA15FB05F1F5408151816A0122E055
:103A8000C20ED11CCE14DF04A8F19A012E193F09F1
:103A90007901690132E0C30ED11C2EEFA22EBB24A6
:103AA000BA94AC0EBD1E25E0C216D10478F0428156
:103AB000538113965C934E9312971196FC92EE925B
:103AC000F501718360833A2F2B2F09C00E5F1F4FC2
:103AD000040F151FD5010D931C933281238100978C
:103AE00021F0FC013283238341C0309320032093D3
:103AF00021033CC0808191818816990608F44C010D
:103B000052814381CF01E52FF42F309709F0B1CFD7
:103B100080910C0190910D018A159B05C1F48616C8
:103B20009706A8F48DB79EB788579109A817B907CB
:103B300008F072CFB0930D01A0930C01B0930B016C
:103B4000A0930A01FE013297718360830FC0CB01FD
:103B50000E94C11B7C01009709F45ECFA801BE0141
:103B60000E943A21CE010E94471CE701CE01DF915D
:103B7000CF911F910F91FF90EF90DF90CF90BF906A
:103B8000AF909F908F9008950C94C11B0C94471C8C
:103B900021E030E0FC018081882311F020E030E05A
:103BA000C901089521E0FC01208308950895089536
:103BB0001F920F920FB60F9211242F933F938F9362
:103BC0009F93AF93BF9380910A0390910B03A091B1
:103BD0000C03B0910D0330911203232F2D5F2D376D
:103BE00020F40196A11DB11D05C0232F2A5702966E
:103BF000A11DB11D2093120380930A0390930B0320
:103C0000A0930C03B0930D0380910E0390910F03CA
:103C1000A0911003B09111030196A11DB11D8093D5
:103C20000E0390930F03A0931003B0931103BF9161
:103C3000AF919F918F913F912F910F900FBE0F9059
:103C40001F9018950F931F938FB7F89400910A0354
:103C500010910B0320910C0330910D038FBFB8011D
:103C6000C9011F910F9108950F931F939FB7F89467
:103C700000910E0310910F03209110033091110356
:103C800086B5A89B06C08F3F21F00F5F1F4F2F4FB7
:103C90003F4F9FBF322F212F102F0027080F111DDC
:103CA000211D311D42E0000F111F221F331F4A95B5
:103CB000D1F7B801C9011F910F910895CF92DF92FA
:103CC000EF92FF92CF93DF936B017C010E94341E31
:103CD000EB010EC00E94341E6C1B7D0B683E7340CE
:103CE00038F081E0C81AD108E108F108C851DC4F6A
:103CF000C114D104E104F10469F7DF91CF91FF9081
:103D0000EF90DF90CF900895019739F0880F991FB9
:103D1000880F991F02970197F1F70895789484B559
:103D2000826084BD84B5816084BD85B5826085BDB7
:103D300085B5816085BDEEE6F0E08081816080839D
:103D4000E1E8F0E010828081826080838081816080
:103D50008083E0E8F0E0808181608083E1E9F0E049
:103D6000808182608083808181608083E0E9F0E0EF
:103D7000808181608083E1ECF0E0808184608083D9
:103D8000808182608083808181608083E3ECF0E0C9
:103D9000808181608083E0ECF0E0808182608083BC
:103DA000E2ECF0E0808181608083EAE7F0E08081EE
:103DB0008460808380818260808380818160808351
:103DC0008081806880830895FF920F931F93CF9323
:103DD000DF93EC01F62EE881F9810480F581E02D76
:103DE00009958C01E881F9810680F781E02D6F2D1E
:103DF000CE01099598013327C901DF91CF911F9119
:103E00000F91FF900895FC0120812F5F208349E1ED
:103E100050E065ED71E080E80C946B1145E650E0F0
:103E20006EEE71E080E80C946B11EF92FF920F93AD
:103E30001F93CF93DF931F92CDB7DEB789838B019A
:103E40007A0141E050E0BE016F5F7F4F84E00E9445
:103E5000D010A701B80184E40E94D0100F90DF9128
:103E6000CF911F910F91FF90EF900895FC019181E8
:103E70008081813A31F481E0913091F0933091F07A
:103E800010C0813271F49B3021F4828180930F0144
:103E900005C09A3031F4828180930E0181E008954B
:103EA000089580E00895FC01108208950895089512
:103EB000CF93DF9300D000D0CDB7DEB7FC01808177
:103EC00089836A834B832C8344E050E0BE016F5F9B
:103ED0007F4F81E00E94151F0F900F900F900F9061
:103EE000DF91CF910895CF93DF93EC01688320E0B9
:103EF00040E060E00E94581F188220E040E060E04F
:103F0000CE01DF91CF910C94581FFC0120816217E4
:103F100031F0608320E040E060E00C94581F089589
:103F2000FC012081622B0C94851F6095FC0120818F
:103F300062230C94851FFC018081682381E009F4D1
:103F400080E00895FC011382128222E731E0318380
:103F5000208308950895089548E050E082E00C948D
:103F6000151FFC0116821782108611861286138691
:103F70001482BC016C5F7F4F0C94AC1FE62F683835
:103F800010F0E85824C0F0E067FF12C0E058F109D3
:103F900021E030E001C0220FEA95EAF72095DC012C
:103FA00014963C911497322314963C93E0E00FC092
:103FB000EB5AFE4FE491EE2329F1E7FF08C0DC0144
:103FC00014962C9114972D7F14962C93EF7720E064
:103FD00030E0EE2351F0DC01A20FB31F16964C9196
:103FE00016974E1302C016961C922F5F3F4F263035
:103FF000310579F7BC016C5F7F4F0E94AC1F21E057
:1040000030E002C020E030E0C9010895CF93DF9393
:10401000DC01E62F683810F0E85824C0F0E067FFB4
:1040200011C0E058F10981E090E001C0880FEA95E5
:10403000EAF714969C911497982B14969C931497D6
:10404000E0E010C0EB5AFE4FE491E11101C040C026
:10405000E7FF08C014968C911497826014968C9395
:104060001497EF7716968C9116978E1741F1179645
:104070008C9117978E1719F118968C9118978E17A7
:10408000F1F019968C9119978E17C9F01A968C91A8
:104090001A978E17A1F01B968C911B978E1779F0AB
:1040A00080E090E0ED01C80FD91F2E81211102C0E0
:1040B000EE8305C0019686309105A1F709C0BD01C8
:1040C0006C5F7F4FCD010E94AC1F21E030E008C043
:1040D00081E090E013969C938E93129720E030E05D
:1040E000C901DF91CF91089510921F03109216031A
:1040F0001092150382E791E09093140380931303C9
:104100000895A1E21A2EAA1BBB1BFD010DC0AA1F18
:10411000BB1FEE1FFF1FA217B307E407F50720F030
:10412000A21BB30BE40BF50B661F771F881F991FAB
:104130001A9469F760957095809590959B01AC01F4
:10414000BD01CF0108952F923F924F925F926F92DF
:104150007F928F929F92AF92BF92CF92DF92EF9217
:10416000FF920F931F93CF93DF93CDB7DEB7CA1B98
:10417000DB0B0FB6F894DEBF0FBECDBF09942A88C3
:10418000398848885F846E847D848C849B84AA846B
:10419000B984C884DF80EE80FD800C811B81AA81F8
:1041A000B981CE0FD11D0FB6F894DEBF0FBECDBFC3
:1041B000ED010895EE0FFF1F0590F491E02D099495
:1041C0000E94E92084FF0895CB010E94E920805FCE
:1041D0000895AA27992329F4A85F982B11F480E168
:1041E0000895903118F4AD5F9295A395990FE8F773
:1041F0008A2F992708951F93FC0199278827BC01CE
:10420000E89411911032E9F3193010F01E30C8F320
:104210001B3251F01D3249F4689406C00E940722F7
:10422000610F711D811D911D119110531A30B0F352
:104230003EF490958095709561957F4F8F4F9F4F7D
:104240001F910895911133C1803219F08950855022
:10425000D0F708959111089581548A5108F4805E31
:10426000855A08959111089581568A5108F4805213
:1042700085580895FB01DC0102C001900D92415068
:104280005040D8F708956817790768F4FB01DC01FE
:10429000E40FF51FA40FB51F02C002900E9241500B
:1042A0005040D8F708950C943A21FC01819186176B
:1042B00021F08823D9F7992708953197CF010895E0
:1042C000FB01DC018D91019080190110D9F3990B4C
:1042D0000895FB01DC0101900D920020E1F70895A3
:1042E000FB01DC014150504030F08D91019080196C
:1042F00019F40020B9F7881B990B0895FB01DC0124
:104300004150504048F001900D920020C9F701C083
:104310001D9241505040E0F70895FC0181E090E08B
:104320000190061609F4CF010020D1F701970895F6
:10433000FB0151915523A9F0BF01DC014D914517B7
:104340004111E1F759F4CD010190002049F04D9160
:1043500040154111C9F3FB014111EFCF81E090E01D
:1043600001970895FB019F01E8944230C4F0453263
:10437000B4F44A3029F497FB1EF4909581959F4F31
:10438000642F77270E946A22805D8A330CF0895D52
:104390008193CB010097A1F716F45DE2519310824F
:1043A000C9010C945A22FA01CF93FF93EF93223064
:1043B00044F1253234F5C22FE894CA3049F497FB12
:1043C0003EF490958095709561957F4F8F4F9F4FEC
:1043D0002C2F332744275527FF93EF930E948120EA
:1043E000EF91FF91605D6A330CF0695D6193B901F3
:1043F000CA01605070408040904051F716F4CDE201
:10440000C19310828F919F91CF910C945A22592F72
:10441000482F372F262F660F771F881F991F660F8B
:10442000771F881F991F620F731F841F951F660FC8
:10443000771F881F991F0895FA01CF93FF93EF9379
:104440002230CCF02532BCF4C22F2C2F3327442746
:104450005527FF93EF930E948120EF91FF91605DBC
:104460006A330CF0695D6193B901CA016050704014
:104470008040904051F710828F919F91CF910C9482
:104480005A22FB019F01423074F0453264F4642FDC
:1044900077270E946A22805D8A330CF0895D8193C0
:1044A000CB010097A1F71082C9010C945A229927D9
:1044B00088270895DC01FC01672F71917723E1F7CC
:1044C000329704C07C916D9370836291AE17BF07E1
:1044D000C8F30895AA1BBB1B51E107C0AA1FBB1F4D
:1044E000A617B70710F0A61BB70B881F991F5A9580
:1044F000A9F780959095BC01CD010895F894FFCF60
:10450000FFFF00E100000000000064002203010141
:1045100000000000000000005374617274210077F5
:10452000726974652E2E2E0000000000D308C20CA4
:104530008808AE089608FB08FE08000000000C0A78
:10454000C20CAE09DD09C109010A00000000D71D37
:10455000C20CD71DD71DD71DD71D6E616E00696EA9
:1045600066006F76660000000000D71DC20C0000D8
:0C4570000000E41EC20C0620BE1FB11F9C
:00000001FF
